:400000000080002011000000010300000103000008B5044B1A6803F53F5302331A6000F08FF900BFFA46004010B5054C237833B9044B13B10448AFF300800123237010BDE7
:400040003881FF1F00000000F00F0000084B10B51BB108490848AFF300800848036803B910BD074B002BFBD0BDE81040184700BF000000003C81FF1FF00F0000C880FF1F24
:400080000000000000B587B062B600F00FFA00F07DFA11220B4901A800F086FB01A800F01FFA0AE000F094FA00F00EFA064800F017FA00F079FA00F007FA00F075FA2028DF
:4000C000F0D0FAE7F40F000000100000FEE700BFF0B40022174611E050F82760F3B226F0FF0608E001EB420511F812406D78A5550132013BDBB2002BF4D10137122FEBD987
:40010000F0BC7047064B1B78DBB203F00701054A11701B09013213704422034B1A707047CF0100496E5800407658004008B50A46002100F030FB08BD38B51925254B1D80DE
:400140001823254A137002321580023213700222224B1A7008224FF040231A70032103F5007319701E4B1B78DBB21E490B701E4B1A8041F25122023B1A8000240CE01B4BE8
:400180001B7803F0010343EA440404F003044FF4F07000F0B9FA013D0DB1032CEFD115B90320FFF793FF124B4FF480721A8007221A7000220F490A704820023108701A702B
:4001C0000222033B1A700C4A137843F00303137038BD00BF80400040824000400043004008010049A146004022420040254200400440004006400040A243004008B500F09D
:40020000BFFA08BD38B572B6304A137843F00403137000240CE02E4D630019194A0011462A44084691882858FFF780FF0134E4B2082CF0D900240BE02549A3001819420083
:4002400088188022C16B806BFFF7D8FF0134E4B2002CF1D01F494FF09040FFF739FF1E4A137843F0020313701032137843F0020313701A4C237843F040032370A2F586326C
:40028000513A137843F0100313700A2214491548FFF7B4FF082214491448FFF7AFFF144A137843F008031370124D61232B70FFF743FF81232B7001220F4B1A70FFF722FF8C
:4002C0000E2221460D48FFF799FF38BDE8460040081000004C00004803500140A043004014050048C05100402005004812510040224300400048004004000840B043004050
:4003000008B500F011FA03680C2B00D1FEE7FEE708B5094B1A681044084BC31A802B02DC054B186005E000F0FFF90C2303604FF0FF32104608BD00BFCC80FF1F8081FF1F2E
:4003400008B5104E104D16E029686B68AC68002204E051F8040B43F8040B0432A242F8D1E868002203E0002143F8041B04328242F9D11035013E002EE6D100F0DBF9FFF755
:4003800081FEFEE701000000A410000008B5104A104B1A60104A136843F40073136000230AE0032B03D80D4A52F8231000E00C490C4A42F8231001332F2BF2D90A4B1A7824
:4003C0000A4B1A70074A0A4B1A60FFF71BFF08BD0004FA050CED00E014ED00E000000000010300000080FF1FBC760040C080FF1F08ED00E001BE704770B504460E46074B9A
:400400001D681F2802D90020FFF7F4FF04F01F04103455F8240045F8246070BD08ED00E038B504460D46072902D90020FFF7E2FF1F2C02D90020FFF7DDFF04F01F0000F1D5
:40044000604000F564406D01EDB2057038BD00BF7222074B1A702022FE3B1A700622A0331A70472210331A70022250331A7070478565004010B500F04FF904460A4A1378A5
:4004800043F020031370FE3A137843F01003137002F58072137843F01003137000F032F8204600F03DF910BD9565004008B5054B1B7823B9FFF7CCFF0122024B1A70FFF7C0
:4004C000D9FF08BD5481FF1F034B1B7813F0040FFAD1024B18707047676500404764004038B5074B1B782BB938BDFFF7EDFF0134A4B201E005460024285D0028F5D138BD57
:400500005481FF1F054A137843F0010313701032137843F001031370704700BFA243004008B509490020FFF767FF07210020FFF777FF0022054B1A707222054B1A70202227
:4005400001331A7008BD00BF510600005681FF1F8564004010B500F0DFF80446094A137843F0200313700132137843F0100313700122054B1A6000F0B7F8204600F0D0F806
:4005800010BD00BF9564004000E100E008B5054B5B7823B9FFF7C4FF0122024B5A70FFF7D9FF08BD5681FF1F074B187800F07F00064B5B7913F0FF0F04D040F08000002251
:4005C000024B5A71704700BF666400405681FF1F0122194B1A60194A9378DBB2D178C9B2127912F0FF0F01D18B4211D0144AD05CC0B20133DBB2132B00D900230F4A937040
:40060000137913F0FF0F13D000220C4B1A710FE00C4B1B78DBB213F0200F06D00A4A1078C0B213F01E0F02D102E0002000E000200122064B1A60704780E100E05681FF1F9A
:400640006481FF1F666400404564004000E100E01D4B1B78DBB213F01E0F05D01B4803F01E0201780A43027003F0200303F0FF0233B3174B1978C9B2164B1B78DBB216484B
:40068000C154164B1B7813F0FF0F02D00121144B197010490B780133DBB20B700B78DBB2132B02D900210B4B19700A4B1978C9B20C4B1B78DBB2994202D10121074B197080
:4006C000002AC5D1704700BF666400405681FF1F456400405981FF1F6481FF1F5A81FF1F5B81FF1F5881FF1F054A137843F0020313701032137843F002031370704700BF64
:40070000A2430040000000000230800803D000BF01380046FCD17047EFF3108072B6704780F31088704700BF014B1868704700BF3081FF1F0E4B70B51E460E4C0025E41A03
:40074000A410A54204D056F8253098470135F8E700F096FC084B094C1E46E41AA4100025A54204D056F8253098470135F8E770BD8C1000008C1000008C1000009410000017
:4007800010B5431E0A44914204D011F8014B03F8014FF8E710BD03460244934202D003F8011BFAE7704700000EB400B54FF402719CB0ADF814106FF00041049107914FF699
:4007C000FF711DAB02900690084853F8042BADF81610006802A9019300F064F8029B00221A701CB05DF804EB03B070473081FF1F2DE9F0478E6882469E420C46914698468D
:400800003ED88A8912F4906F3AD02568096902236F1A656905EB450595FBF3F57B1C43449D4238BF1D4653050FD5294600F040FB064698B13A462169FFF7A2FFA38923F4AD
:40084000906343F08003A38113E02A4600F08EFB064670B92169504600F0DEFA0C23CAF80030A3894FF0FF3043F04003A381BDE8F08726613E44266046466561ED1BA56013
:40088000464528BF464649463246206800F0A8FAA36800209B1BA36023681E442660BDE8F08700002DE9F04F9DB003938B8980461C060D4616460DD50B695BB9402100F008
:4008C000F7FA2860286118B90C23C8F80030CDE040236B610023099320238DF82930DFF89CB130238DF82A3037463C4614F8013B1BB9B7EB060910D003E0252BF9D02746DF
:40090000F3E74B46324629464046FFF771FF013000F0A780099B4B4409933B78002B00F0A08000234FF0FF3204930793059206938DF853301A930126052221784E4800F05E
:4009400041FA671C049B38B14B4A3C46801A06FA00F018430490EFE7D90644BF20228DF853201A0744BF2B228DF8532022782A2A03D0079A00210A200BE0039A111D126869
:400980000391002A10DA524243F00200079204900BE027463B780134303B092B03D800FB02320121F5E701B107923B782E2B1ED17B782A2B0AD1039B02371A1D1B68039223
:4009C000002BB8BF4FF0FF33059310E0002319460593781C0A2407463A780130303A092A03D804FB01210123F5E703B1059103223978224800F0E6F940B14023CBEB000054
:400A000003FA00F0049B013718430490397806221B487E1C8DF8281000F0D4F988B1194B33B9039B073323F007030833039314E003AB00932A46144B04A94046AFF300800B
:400A400007E003AB00932A460F4B04A9404600F093F8B0F1FF3F824603D0099B5344099342E7AB895B0601D4099801E04FF0FF301DB0BDE8F08F00BF4C1000005210000094
:400A80005610000000000000F10700002DE9F04791461F460A698B6806469342B8BF1346C9F8003091F843200C46DDF8208012B10133C9F800302368990642BFD9F8003040
:400AC0000233C9F80030256815F0060510D104F1190A07E00123524639463046C04701301AD00135E368D9F800209B1A9D42F1DB94F843302268003318BF012392060FD57B
:400B0000E118302081F843005A1C94F845102244023382F8431003E04FF0FF30BDE8F08704F1430239463046C0470130F4D02268D9F80050E36802F00602042A08BF5D1BFC
:400B40002269A3680CBF25EAE57500259342C4BF9B1AED184FF000091A344D4509D00123224639463046C0470130D5D009F10109F3E70020BDE8F0872DE9F04317460A7ECD
:400B800085B06E2A984606460C460C9B01F1430E00F0AE8011D8632A22D009D8002A00F0BB80582A40F0CA8081F84520834955E0642A1ED0692A1CD0C0E0732A00F0B08013
:400BC00009D86F2A2ED0702A40F0B8800A6842F020020A603EE0752A24D0782A3AD0ADE01A6801F14205111D1960136884F84230A8E021681A6811F0800F02D0111D1960FA
:400C000008E011F0400F02F10401196002D0B2F9003000E01368002B3CDA2D225B4284F8432037E021681A6811F0800F02D0111D196007E011F0400F02F10401196001D053
:400C4000138800E01368227E5C496F2A14BF0A2208221BE078225A4984F845202268186812F0800F00F104051D6003D1550601D5038800E00368D00744BF42F020022260C1
:400C80001BB9226822F0200222601022002084F8430001E049490A226568002DA56008DB206820F0040020602BB9002D7DD175460CE0002B79D07546B3FBF2F002FB10336D
:400CC000CB5C05F8013D03460028F5D1082A0BD12368DA0708D5236962689A42DEBF302305F8013C05F1FF35C5EB0E0323612EE008681A6810F0800F496903D0101D186080
:400D0000136808E010F0400F02F104001860136801D0198000E0196000232361754616E01A68111D1960156800216268284600F049F808B1401B6060636804E004F142050D
:400D400084F8422001232361002384F84330CDF800803B4603AA21463046FFF797FE013002D14FF0FF3026E023692A4639463046C0470130F5D023689B0710D5002504F16E
:400D8000190907E001234A4639463046C0470130E7D00135E368039A9B1A9D42F2DBE068039B9842B8BF184605E00B7804F1420584F842308AE705B0BDE8F0835D10000041
:400DC0006E10000010B5C9B202449042034605D01C7801308C42F8D1184610BD002010BD884210B501EB020301D8421E0BE09842FBD28118D21AD34204D013F8014D01F880
:400E0000014DF8E710BD994204D011F8014B02F8014FF8E710BD000038B50546002944D051F8043C0C1F002BB8BFE41800F0D4F81E4A1368114613B96360146030E0A34209
:400E40000DD92268A018834201BF18685B681218226063600C6023E0A24203D813465A68002AF9D118681918A1420BD12168014458188242196013D1106852680144196017
:400E80005A600DE002D90C232B6009E021686018824201BF106852680918216062605C602846BDE8384000F098B838BD6081FF1F70B5CD1C25F0030508350C2D38BF0C25AE
:400EC000002D064601DBA94202D90C23336046E000F082F8234B1C681A462146A1B10B685B1B0ED40B2B03D90B60CC18CD501EE08C420BBF63684B681360636018BF0C46BE
:400F000015E00C464968E9E7174C23681BB9304600F052F820602946304600F04DF8431C18D0C41C24F00304A0420DD12560304600F053F804F10B00231D20F00700C31A71
:400F40000ED05A42E25070BD211A304600F034F80130EBD10C233360304600F03EF8002070BD00BF6081FF1F5C81FF1FF8B5074615460E4621B91146BDE8F840FFF798BF76
:400F80001AB9FFF749FF2846F8BD00F027F885420ED929463846FFF78BFF044650B131462A46FFF7EDFB31463846FFF735FF01E03046F8BD2046F8BD38B5064C00230546D0
:400FC00008462360FFF7A4F9431C02D1236803B12B6038BD7881FF1F7047704751F8040C0028BEBF091851F8043CC0180438704700000000686F7764793A2025640D0A007F
:401000000D0A0D0A00000000005100401000205100405000F0510040100000000140800400050140000B00140140000800400140000A004C01400002005001402000000011
:40104000800401409404004880004300232D302B2000686C4C0065666745464700303132333435363738394142434445460030313233343536373839616263646566000015
:40108000F8B500BFF8BC08BC9E4670474D0000008D030000F8B500BFF8BC08BC9E46704729000000B8100000C880FF1F700000004800000000000000000000008081FF1F27
:4010C00000000000000000000000000000000000000000000000000000000000000000004A1000000000000000000000000000000000000000000000000000000000000096
:401100000000000000000000000000000000000000000000000000000000000000000000D080FF1F0000000000000000000000000000000000000000000000000000000041
:40114000000000000000000000000000000000000000000000000000000000000000000000000000000000000000000000000000000000000000000000000000000000006F
:40118000000000000000000000000000000000000000000000000000000000000000000000000000000000000000000000000000000000000000000000000000000000002F
:4011C00000000000000000000000000000000000000000000000000000000000000000000000000000000000000000000000000000000000000000000000000000000000EF
:4012000000000000000000000000000000000000000000000000000000000000000000000000000000000000000000000000000000000000000000000000000000000000AE
:020000040003F7
:0200000480007A
:400000000252004003640040026500401E040140340501404C0601404607014044140140471501405016014045170140021B014002400140014101400342014005430140F3
:40004000074D01400450014001510140618064488572863887388572870F07010F0137013F40405641034204440146E0470C481849FF4AFF4BFF4C624DA04EF04F41500C88
:4000800059045A045F016640670269106A306B106D106E106F12051007200D0815541D291F4023012410260A27082C012D202E042F403101320135903602370838883A80C0
:4000C0003D803E2A400142804308452247084A014B104DA04E094F085004532057405E206D546F147508762A84018508C060C220C4E0CAF0CCF0CEFAD0EBD23CD62001089B
:400100000207040A050406100807092F0E060F10110F132014061523170C18141A081C071D0D1F2222072418250C28182B102F223006310E3201331034183501372C3808F9
:400140003B803F1454185604580459045B045C115D105F0185039503980199029B05AB08AD01AF06B201B503B70CBE04BF40C051C104C50EC6CBC80DC9FFCAFFCBFFCEF038
:40018000CF44D00CD418D804D904DA04DB04DF01E6C0EA40EB02058207280B080D880E041480171419041D101E141F022001212025422698280229202D882E10300831200F
:4001C000348035023682370839043C103E0A3F804101434048204B4852505B015D0162206301640466016702820188048A08901093019481971099889A0A9B3C9D10A108D0
:40020000A202A364A542A611A708AE04AF20C0F0C2E2C470CA7CCCD6CEF2D009D208D681D8BC0014044006A0081C09160A020B090D080E030F1310201108124013151409EE
:40024000161018801A401B161C101E0C1F092010230224E028E02C0C2E11301F3107331B34E03B0A580459045F01810885048B638D1F8F60912192019401951C9763990CD3
:400280009C019D739F0CA563A601A97FAD42B001B10FB510B760B802BA08BB02BF10D602D711D804D904DB04DF0100540240080209200A220E120F8010481104128013409D
:4002C0001708184419201B201D011E101F0C2010210123402611274128402E402F24308032113402376838103B403D803E0A3F905E206C086D046F027404760A77208004D5
:4003000088028D208E40900892229310945095069A409B089C029D219E0A9F01A080A160A280A40CA601A70AC00FC2BFC42FCA71CCFDCEFCD620E401011005180B630D1C2D
:400340000F6111041202153C17421A0223042508297F2D672E012F1830023138351F360137583BA03E01580459045F01816383048510894A8A038B048C088D638F0C90038F
:40038000911095109B089C039F25A004A201A380A601A780A903AB04B001B10FB206B310B408B580B760B808B980BB02BE11BF50C001C604C9FFCA07CBFFCC40CD20CEF031
:4003C000CF05D008D401D804D904DA04DB04DF01E040E1A8E240E32000500B410D020F0810901210140218081A601F4121402221235024802540270829012A102B202D8019
:400400002E082F4830883210334234023708381039063B413C083D803E023F104140488049804A015280581159045A40948095069752980199049A509C029D209F41A12253
:40044000A324A408A621A708A810A980AC21AD01AF02C003C259C48CCAF7CCCFCEFFD008D60FE220E4013310CC109F1007809F10C02083109F10AF80E220E8401010700478
:4004800080048810C408DC01E20400030A0310011A0100030008000001041A00040C1200001F0020001C00430273250C00020000000000630000001047110000477F000032
:4004C00040030000407C0700300F08000000002A0000100035060400020C0E0005FFFFFF62A0F0410C00000000000211040404041111000100000000000040020010301001
:400500000010101200000000000000000000000000000000800048808000800000000000000B0B00000000000000000000000000000000000000000000000000000000002B
:40054000000000000000000000000000000000000000000000000000000000000000000000000000000000000000000000000000000000000000000000000000000000007B
:40058000000000000000000000000000000000000000000000000000000000000000000000000000000000000000000000000000000000000000000000000000000000003B
:4005C00000000000000000000000000000000000000000000000000000000000000000000000000000000000000000000000000000000000000000000000000000000000FB
:4006000000000000000000000000000000000000000000000000000000000000000000000000000000000000000000000000000000000000000000000000000000000000BA
:0200000490006A
:0400000000004005B7
:0200000490105A
:04000000BC90ACAF55
:0200000490303A
:02000000573F68
:0200000490402A
:4000000000000000000000000000000000000000000000000000000000000000000000000000000000000000000000000000000000000000000000000000000000000000C0
:400040000000000000000000000000000000000000000000000000000000000000000000000000000000000000000000000000000000000000000000000000000000000080
:400080000000000000000000000000000000000000000000000000000000000000000000000000000000000000000000000000000000000000000000000000000000000040
:4000C0000000000000000000000000000000000000000000000000000000000000000000000000000000000000000000000000000000000000000000000000000000000000
:0200000490501A
:0C00000000012E16106900012E1D67A8DB
:00000001FF